{
  "_format": "hh-sol-artifact-1",
  "contractName": "CrowdFunding",
  "sourceName": "contracts/CrowdFunding.sol",
  "abi": [
    {
      "inputs": [
        {
          "internalType": "uint256",
          "name": "",
          "type": "uint256"
        }
      ],
      "name": "campaigns",
      "outputs": [
        {
          "internalType": "address",
          "name": "owner",
          "type": "address"
        },
        {
          "internalType": "string",
          "name": "title",
          "type": "string"
        },
        {
          "internalType": "string",
          "name": "description",
          "type": "string"
        },
        {
          "internalType": "uint256",
          "name": "target",
          "type": "uint256"
        },
        {
          "internalType": "uint256",
          "name": "deadline",
          "type": "uint256"
        },
        {
          "internalType": "uint256",
          "name": "amountCollected",
          "type": "uint256"
        },
        {
          "internalType": "string",
          "name": "image",
          "type": "string"
        }
      ],
      "stateMutability": "view",
      "type": "function"
    },
    {
      "inputs": [
        {
          "internalType": "address",
          "name": "_owner",
          "type": "address"
        },
        {
          "internalType": "string",
          "name": "_title",
          "type": "string"
        },
        {
          "internalType": "string",
          "name": "_description",
          "type": "string"
        },
        {
          "internalType": "uint256",
          "name": "_target",
          "type": "uint256"
        },
        {
          "internalType": "uint256",
          "name": "_deadline",
          "type": "uint256"
        }
      ],
      "name": "createCampaign",
      "outputs": [
        {
          "internalType": "uint256",
          "name": "",
          "type": "uint256"
        }
      ],
      "stateMutability": "nonpayable",
      "type": "function"
    },
    {
      "inputs": [
        {
          "internalType": "uint256",
          "name": "_id",
          "type": "uint256"
        }
      ],
      "name": "donateToCampaign",
      "outputs": [],
      "stateMutability": "payable",
      "type": "function"
    },
    {
      "inputs": [],
      "name": "getCampaigns",
      "outputs": [
        {
          "components": [
            {
              "internalType": "address",
              "name": "owner",
              "type": "address"
            },
            {
              "internalType": "string",
              "name": "title",
              "type": "string"
            },
            {
              "internalType": "string",
              "name": "description",
              "type": "string"
            },
            {
              "internalType": "uint256",
              "name": "target",
              "type": "uint256"
            },
            {
              "internalType": "uint256",
              "name": "deadline",
              "type": "uint256"
            },
            {
              "internalType": "uint256",
              "name": "amountCollected",
              "type": "uint256"
            },
            {
              "internalType": "string",
              "name": "image",
              "type": "string"
            },
            {
              "internalType": "address[]",
              "name": "donators",
              "type": "address[]"
            },
            {
              "internalType": "uint256[]",
              "name": "donations",
              "type": "uint256[]"
            }
          ],
          "internalType": "struct CrowdFunding.Campaign[]",
          "name": "",
          "type": "tuple[]"
        }
      ],
      "stateMutability": "view",
      "type": "function"
    },
    {
      "inputs": [
        {
          "internalType": "uint256",
          "name": "_id",
          "type": "uint256"
        }
      ],
      "name": "getDonators",
      "outputs": [
        {
          "internalType": "address[]",
          "name": "",
          "type": "address[]"
        },
        {
          "internalType": "uint256[]",
          "name": "",
          "type": "uint256[]"
        }
      ],
      "stateMutability": "view",
      "type": "function"
    },
    {
      "inputs": [],
      "name": "numberOfCampaigns",
      "outputs": [
        {
          "internalType": "uint256",
          "name": "",
          "type": "uint256"
        }
      ],
      "stateMutability": "view",
      "type": "function"
    }
  ],
  "bytecode": "0x6080604052600060015534801561001557600080fd5b506118ea806100256000396000f3fe6080604052600436106100555760003560e01c8063075843c31461005a57806307ca140d146100975780630fa91fa9146100c2578063141961bc1461010057806342a4fda814610143578063a6b036331461015f575b600080fd5b34801561006657600080fd5b50610081600480360381019061007c9190610d34565b61018a565b60405161008e9190610df6565b60405180910390f35b3480156100a357600080fd5b506100ac61029e565b6040516100b99190610df6565b60405180910390f35b3480156100ce57600080fd5b506100e960048036038101906100e49190610e11565b6102a4565b6040516100f7929190610fba565b60405180910390f35b34801561010c57600080fd5b5061012760048036038101906101229190610e11565b6103b4565b60405161013a979695949392919061107f565b60405180910390f35b61015d60048036038101906101589190610e11565b6105ae565b005b34801561016b57600080fd5b5061017461070e565b60405161018191906113ce565b60405180910390f35b60008060008060015481526020019081526020016000209050428160040154106101e9576040517f08c379a00000000000000000000000000000000000000000000000000000000081526004016101e090611462565b60405180910390fd5b868160000160006101000a81548173ffffffffffffffffffffffffffffffffffffffff021916908373ffffffffffffffffffffffffffffffffffffffff1602179055508581600101908161023d919061168e565b508481600201908161024f919061168e565b50838160030181905550828160040181905550600081600501819055506001600081548092919061027f9061178f565b91905055506001805461029291906117d7565b91505095945050505050565b60015481565b6060806000808481526020019081526020016000206007016000808581526020019081526020016000206008018180548060200260200160405190810160405280929190818152602001828054801561035257602002820191906000526020600020905b8160009054906101000a900473ffffffffffffffffffffffffffffffffffffffff1673ffffffffffffffffffffffffffffffffffffffff1681526020019060010190808311610308575b50505050509150808054806020026020016040519081016040528092919081815260200182805480156103a457602002820191906000526020600020905b815481526020019060010190808311610390575b5050505050905091509150915091565b60006020528060005260406000206000915090508060000160009054906101000a900473ffffffffffffffffffffffffffffffffffffffff16908060010180546103fd906114b1565b80601f0160208091040260200160405190810160405280929190818152602001828054610429906114b1565b80156104765780601f1061044b57610100808354040283529160200191610476565b820191906000526020600020905b81548152906001019060200180831161045957829003601f168201915b50505050509080600201805461048b906114b1565b80601f01602080910402602001604051908101604052809291908181526020018280546104b7906114b1565b80156105045780601f106104d957610100808354040283529160200191610504565b820191906000526020600020905b8154815290600101906020018083116104e757829003601f168201915b50505050509080600301549080600401549080600501549080600601805461052b906114b1565b80601f0160208091040260200160405190810160405280929190818152602001828054610557906114b1565b80156105a45780601f10610579576101008083540402835291602001916105a4565b820191906000526020600020905b81548152906001019060200180831161058757829003601f168201915b5050505050905087565b60003490506000806000848152602001908152602001600020905080600701339080600181540180825580915050600190039060005260206000200160009091909190916101000a81548173ffffffffffffffffffffffffffffffffffffffff021916908373ffffffffffffffffffffffffffffffffffffffff1602179055508060080182908060018154018082558091505060019003906000526020600020016000909190919091505560008160000160009054906101000a900473ffffffffffffffffffffffffffffffffffffffff1673ffffffffffffffffffffffffffffffffffffffff16836040516106a39061183c565b60006040518083038185875af1925050503d80600081146106e0576040519150601f19603f3d011682016040523d82523d6000602084013e6106e5565b606091505b505090508015610708578282600501546106ff9190611851565b82600501819055505b50505050565b6060600060015467ffffffffffffffff81111561072e5761072d610bd3565b5b60405190808252806020026020018201604052801561076757816020015b610754610ae4565b81526020019060019003908161074c5790505b50905060005b600154811015610adc576000806000838152602001908152602001600020905080604051806101200160405290816000820160009054906101000a900473ffffffffffffffffffffffffffffffffffffffff1673ffffffffffffffffffffffffffffffffffffffff1673ffffffffffffffffffffffffffffffffffffffff168152602001600182018054610800906114b1565b80601f016020809104026020016040519081016040528092919081815260200182805461082c906114b1565b80156108795780601f1061084e57610100808354040283529160200191610879565b820191906000526020600020905b81548152906001019060200180831161085c57829003601f168201915b50505050508152602001600282018054610892906114b1565b80601f01602080910402602001604051908101604052809291908181526020018280546108be906114b1565b801561090b5780601f106108e05761010080835404028352916020019161090b565b820191906000526020600020905b8154815290600101906020018083116108ee57829003601f168201915b50505050508152602001600382015481526020016004820154815260200160058201548152602001600682018054610942906114b1565b80601f016020809104026020016040519081016040528092919081815260200182805461096e906114b1565b80156109bb5780601f10610990576101008083540402835291602001916109bb565b820191906000526020600020905b81548152906001019060200180831161099e57829003601f168201915b5050505050815260200160078201805480602002602001604051908101604052809291908181526020018280548015610a4957602002820191906000526020600020905b8160009054906101000a900473ffffffffffffffffffffffffffffffffffffffff1673ffffffffffffffffffffffffffffffffffffffff16815260200190600101908083116109ff575b5050505050815260200160088201805480602002602001604051908101604052809291908181526020018280548015610aa157602002820191906000526020600020905b815481526020019060010190808311610a8d575b505050505081525050838381518110610abd57610abc611885565b5b6020026020010181905250508080610ad49061178f565b91505061076d565b508091505090565b604051806101200160405280600073ffffffffffffffffffffffffffffffffffffffff16815260200160608152602001606081526020016000815260200160008152602001600081526020016060815260200160608152602001606081525090565b6000604051905090565b600080fd5b600080fd5b600073ffffffffffffffffffffffffffffffffffffffff82169050919050565b6000610b8582610b5a565b9050919050565b610b9581610b7a565b8114610ba057600080fd5b50565b600081359050610bb281610b8c565b92915050565b600080fd5b600080fd5b6000601f19601f8301169050919050565b7f4e487b7100000000000000000000000000000000000000000000000000000000600052604160045260246000fd5b610c0b82610bc2565b810181811067ffffffffffffffff82111715610c2a57610c29610bd3565b5b80604052505050565b6000610c3d610b46565b9050610c498282610c02565b919050565b600067ffffffffffffffff821115610c6957610c68610bd3565b5b610c7282610bc2565b9050602081019050919050565b82818337600083830152505050565b6000610ca1610c9c84610c4e565b610c33565b905082815260208101848484011115610cbd57610cbc610bbd565b5b610cc8848285610c7f565b509392505050565b600082601f830112610ce557610ce4610bb8565b5b8135610cf5848260208601610c8e565b91505092915050565b6000819050919050565b610d1181610cfe565b8114610d1c57600080fd5b50565b600081359050610d2e81610d08565b92915050565b600080600080600060a08688031215610d5057610d4f610b50565b5b6000610d5e88828901610ba3565b955050602086013567ffffffffffffffff811115610d7f57610d7e610b55565b5b610d8b88828901610cd0565b945050604086013567ffffffffffffffff811115610dac57610dab610b55565b5b610db888828901610cd0565b9350506060610dc988828901610d1f565b9250506080610dda88828901610d1f565b9150509295509295909350565b610df081610cfe565b82525050565b6000602082019050610e0b6000830184610de7565b92915050565b600060208284031215610e2757610e26610b50565b5b6000610e3584828501610d1f565b91505092915050565b600081519050919050565b600082825260208201905092915050565b6000819050602082019050919050565b610e7381610b7a565b82525050565b6000610e858383610e6a565b60208301905092915050565b6000602082019050919050565b6000610ea982610e3e565b610eb38185610e49565b9350610ebe83610e5a565b8060005b83811015610eef578151610ed68882610e79565b9750610ee183610e91565b925050600181019050610ec2565b5085935050505092915050565b600081519050919050565b600082825260208201905092915050565b6000819050602082019050919050565b610f3181610cfe565b82525050565b6000610f438383610f28565b60208301905092915050565b6000602082019050919050565b6000610f6782610efc565b610f718185610f07565b9350610f7c83610f18565b8060005b83811015610fad578151610f948882610f37565b9750610f9f83610f4f565b925050600181019050610f80565b5085935050505092915050565b60006040820190508181036000830152610fd48185610e9e565b90508181036020830152610fe88184610f5c565b90509392505050565b610ffa81610b7a565b82525050565b600081519050919050565b600082825260208201905092915050565b60005b8381101561103a57808201518184015260208101905061101f565b60008484015250505050565b600061105182611000565b61105b818561100b565b935061106b81856020860161101c565b61107481610bc2565b840191505092915050565b600060e082019050611094600083018a610ff1565b81810360208301526110a68189611046565b905081810360408301526110ba8188611046565b90506110c96060830187610de7565b6110d66080830186610de7565b6110e360a0830185610de7565b81810360c08301526110f58184611046565b905098975050505050505050565b600081519050919050565b600082825260208201905092915050565b6000819050602082019050919050565b600082825260208201905092915050565b600061114b82611000565b611155818561112f565b935061116581856020860161101c565b61116e81610bc2565b840191505092915050565b600082825260208201905092915050565b600061119582610e3e565b61119f8185611179565b93506111aa83610e5a565b8060005b838110156111db5781516111c28882610e79565b97506111cd83610e91565b9250506001810190506111ae565b5085935050505092915050565b600082825260208201905092915050565b600061120482610efc565b61120e81856111e8565b935061121983610f18565b8060005b8381101561124a5781516112318882610f37565b975061123c83610f4f565b92505060018101905061121d565b5085935050505092915050565b6000610120830160008301516112706000860182610e6a565b50602083015184820360208601526112888282611140565b915050604083015184820360408601526112a28282611140565b91505060608301516112b76060860182610f28565b5060808301516112ca6080860182610f28565b5060a08301516112dd60a0860182610f28565b5060c083015184820360c08601526112f58282611140565b91505060e083015184820360e086015261130f828261118a565b91505061010083015184820361010086015261132b82826111f9565b9150508091505092915050565b60006113448383611257565b905092915050565b6000602082019050919050565b600061136482611103565b61136e818561110e565b9350836020820285016113808561111f565b8060005b858110156113bc578484038952815161139d8582611338565b94506113a88361134c565b925060208a01995050600181019050611384565b50829750879550505050505092915050565b600060208201905081810360008301526113e88184611359565b905092915050565b7f54686520646561646c696e652073686f756c642062652061206461746520696e60008201527f20746865206675747572652e0000000000000000000000000000000000000000602082015250565b600061144c602c8361100b565b9150611457826113f0565b604082019050919050565b6000602082019050818103600083015261147b8161143f565b9050919050565b7f4e487b7100000000000000000000000000000000000000000000000000000000600052602260045260246000fd5b600060028204905060018216806114c957607f821691505b6020821081036114dc576114db611482565b5b50919050565b60008190508160005260206000209050919050565b60006020601f8301049050919050565b600082821b905092915050565b6000600883026115447fffffffffffffffffffffffffffffffffffffffffffffffffffffffffffffffff82611507565b61154e8683611507565b95508019841693508086168417925050509392505050565b6000819050919050565b600061158b61158661158184610cfe565b611566565b610cfe565b9050919050565b6000819050919050565b6115a583611570565b6115b96115b182611592565b848454611514565b825550505050565b600090565b6115ce6115c1565b6115d981848461159c565b505050565b5b818110156115fd576115f26000826115c6565b6001810190506115df565b5050565b601f82111561164257611613816114e2565b61161c846114f7565b8101602085101561162b578190505b61163f611637856114f7565b8301826115de565b50505b505050565b600082821c905092915050565b600061166560001984600802611647565b1980831691505092915050565b600061167e8383611654565b9150826002028217905092915050565b61169782611000565b67ffffffffffffffff8111156116b0576116af610bd3565b5b6116ba82546114b1565b6116c5828285611601565b600060209050601f8311600181146116f857600084156116e6578287015190505b6116f08582611672565b865550611758565b601f198416611706866114e2565b60005b8281101561172e57848901518255600182019150602085019450602081019050611709565b8683101561174b5784890151611747601f891682611654565b8355505b6001600288020188555050505b505050505050565b7f4e487b7100000000000000000000000000000000000000000000000000000000600052601160045260246000fd5b600061179a82610cfe565b91507fffffffffffffffffffffffffffffffffffffffffffffffffffffffffffffffff82036117cc576117cb611760565b5b600182019050919050565b60006117e282610cfe565b91506117ed83610cfe565b925082820390508181111561180557611804611760565b5b92915050565b600081905092915050565b50565b600061182660008361180b565b915061183182611816565b600082019050919050565b600061184782611819565b9150819050919050565b600061185c82610cfe565b915061186783610cfe565b925082820190508082111561187f5761187e611760565b5b92915050565b7f4e487b7100000000000000000000000000000000000000000000000000000000600052603260045260246000fdfea264697066735822122095022e2c2d1bac6b5e49bb723d14243416d981c426023d674107a0d90f8db96164736f6c63430008120033",
  "linkReferences": {},
  "deployedLinkReferences": {}
}